:100000000C9428010C9459010C9459010C94590139
:100010000C9459010C9459010C9459010C945901F8
:100020000C9459010C9459010C9459010C945901E8
:100030000C9459010C9459010C9459010C945901D8
:100040000C9459010C9459010C9459010C945901C8
:100050000C9459010C9459010C9459010C944003CF
:100060000C9459010C9414040C94EA030C94590157
:100070000C9459010C9459010C9459010C94590198
:100080000C9459010C9459010C9459010C94590188
:100090000C94B4030C948A030C9459010C945901E8
:1000A0000C9459010C9459010C9459010C94590168
:1000B0000C9459010C9459010C9459010C94590158
:1000C0000C9459010C9459010C9459010C94590148
:1000D0000C9459010C9459010C9459010C94590138
:1000E0000C9459010C94F2010C944A040C94E40110
:1000F0000C94FC010C94C5010C9464020C945602FF
:100100000C94E0010C94F3020C94C1010C94D00106
:100110000C9406020C94AF010C94F6010C940002AE
:100120000C94CD010C94AA010C9433020C94A602F9
:100130000C94C9010C94D6010C9442020C94DA017F
:100140000C94E8010C94EE0100000A0B02090C0D5E
:100150000E0807030401000000000000000000007A
:10016000000000000000000000000000000000008F
:10017000000000001211100000000000000000004C
:10018000000000000000000000000000000000006F
:100190002200250028002B002E003100340002012F
:1001A0000000050108010B010000210024002700C8
:1001B0002A002D0030003300010100000401070176
:1001C0000A010505050507050808080802020202DC
:1001D0000A0A0808040404040101010101010101E3
:1001E0000303030303030303040707070C0C0C0CAE
:1001F0000C0C0C0C02020202060606060606060697
:100200000B0B0B0B0B0B0B0B010210202008081023
:100210002040102040800201020108040201010276
:10022000040810204080804020100804020180044F
:1002300002018040201008040201080402010102AA
:1002400004081020408001020408102040804A0465
:1002500011241FBECFEFD1E2DEBFCDBF00E00CBF47
:1002600012E0A0E0B2E0EEEFFBE000E00BBF02C066
:1002700007900D92A231B107D9F723E0A2E1B2E0D5
:1002800001C01D92A635B207E1F711E0C8E2D1E046
:1002900000E006C021970109802FFE010E94F505AC
:1002A000C732D10780E00807A9F70E949D040C948B
:1002B000FD050C94000090E0FC01E85FFD4F2491E7
:1002C0008E539E4FFC018491882399F090E0880F13
:1002D000991FFC01E855FE4FA591B491FC01E2572E
:1002E000FE4F859194918FB7F894EC91E22BEC93AB
:1002F0008FBF0895282F30E0F901E85BFE4F9491FD
:10030000F901E85FFD4F44912E533E4FF9012491CE
:10031000222309F435C0992311F191509231F8F458
:10032000E92FF0E08827E856FE4F8F4F0C94F50533
:10033000C901CD01AA01C101C501AF01D001D6019A
:10034000DA01E001E401E801EE01F201AF01F6019A
:10035000FC010002809180008F7780938000E22F63
:10036000F0E0EE0FFF1FE257FE4FA591B4918FB75B
:10037000F894EC91611148C040954E234C938FBF87
:100380000895809180008F7DE8CF80918000877FE5
:10039000E4CF84B58F7784BDE2CF84B58F7DFBCF6A
:1003A0008091B0008F778093B000D9CF8091B0005A
:1003B0008F7DF9CF809190008F7780939000CFCF81
:1003C000809190008F7DF9CF80919000877FF5CF4D
:1003D0008091A0008F778093A000C1CF8091A00072
:1003E0008F7DF9CF8091A000877FF5CF809120018C
:1003F0008F7780932001B3CF809120018F7DF9CF3B
:1004000080912001877FF5CF4E2BB8CFAF92BF925E
:10041000CF92DF92EF92FF920F931F93CF93DF93D0
:100420006C017B018B01040F151FEB015E01AE18FF
:10043000BF08C017D10759F06991D601ED91FC9121
:100440000190F081E02DC6011995892B79F7C5013E
:10045000DF91CF911F910F91FF90EF90DF90CF90A0
:10046000BF90AF900895FC01538D448D252F30E04F
:10047000842F90E0821B930B541710F0CF960895B1
:1004800001970895FC01918D828D981761F0A28DDE
:10049000AE0FBF2FB11D5D968C91928D9F5F9F73A4
:1004A000928F90E008958FEF9FEF0895FC01918D5A
:1004B000828D981731F0828DE80FF11D858D90E0C7
:1004C00008958FEF9FEF0895FC01918D228D892F64
:1004D00090E0805C9F4F821B91098F73992708954C
:1004E0008CE192E00E94640221E0892B09F420E073
:1004F000822F089589EB92E00E94640221E0892B0B
:1005000009F420E0822F0895FC01A48DA80FB92FD3
:10051000B11DA35ABF4F2C91848D90E001968F732B
:100520009927848FA689B7892C93A089B1898C914A
:10053000837080648C93938D848D981306C0028899
:10054000F389E02D80818F7D80830895EF92FF9263
:100550000F931F93CF93DF93EC0181E0888F9B8DE6
:100560008C8D98131AC0E889F989808185FF15C0A0
:100570009FB7F894EE89FF896083E889F9898081C3
:100580008370806480839FBF81E090E0DF91CF9192
:100590001F910F91FF90EF900895F62E0B8D10E0B4
:1005A0000F5F1F4F0F731127E02E8C8D8E110CC023
:1005B0000FB607FCFACFE889F989808185FFF5CF6E
:1005C000CE010E948402F1CFEB8DEC0FFD2FF11DC7
:1005D000E35AFF4FF0829FB7F8940B8FEA89FB89AB
:1005E00080818062CFCFCF93DF93EC01888D882309
:1005F000B9F0AA89BB89E889F9898C9185FD03C086
:10060000808186FD0DC00FB607FCF7CF8C9185FF6A
:10061000F2CF808185FFEDCFCE010E948402E9CF29
:10062000DF91CF91089580E090E0892B29F00E941E
:100630007A0281110E94000080E090E0892B29F06D
:100640000E94700281110E94000080E090E0892BDE
:1006500049F080E090E0892B29F00E940000811190
:100660000E94000080E090E0892B49F080E090E05B
:10067000892B29F00E94000081110C94000008953C
:100680001F920F920FB60F9211242F933F938F93C7
:100690009F93AF93BF938091180290911902A091FC
:1006A0001A02B0911B023091170223E0230F2D375D
:1006B00058F50196A11DB11D2093170280931802D1
:1006C00090931902A0931A02B0931B028091130217
:1006D00090911402A0911502B09116020196A11DED
:1006E000B11D8093130290931402A0931502B0934E
:1006F0001602BF91AF919F918F913F912F910F90D3
:100700000FBE0F901F90189526E8230F0296A11D8B
:10071000B11DD2CF1F920F920FB60F9211240BB6BC
:100720000F922F933F934F935F936F937F938F938A
:100730009F93AF93BF93EF93FF938CE192E00E945E
:100740008402FF91EF91BF91AF919F918F917F9123
:100750006F915F914F913F912F910F900BBE0F9032
:100760000FBE0F901F9018951F920F920FB60F9209
:1007700011240BB60F922F938F939F93EF93FF93B8
:10078000E0912C02F0912D028081E0913202F091F3
:10079000330282FD1DC09081809135028F5F8F737F
:1007A00020913602821741F0E0913502F0E0E45EDC
:1007B000FD4F958F80933502FF91EF919F918F911F
:1007C0002F910F900BBE0F900FBE0F901F9018959A
:1007D0008081F2CF1F920F920FB60F9211240BB6A9
:1007E0000F922F933F934F935F936F937F938F93CA
:1007F0009F93AF93BF93EF93FF9389EB92E00E9497
:100800008402FF91EF91BF91AF919F918F917F9162
:100810006F915F914F913F912F910F900BBE0F9071
:100820000FBE0F901F9018951F920F920FB60F9248
:1008300011240BB60F922F938F939F93EF93FF93F7
:10084000E091C902F091CA028081E091CF02F0915B
:10085000D00282FD1DC090818091D2028F5F8F7384
:100860002091D302821741F0E091D202F0E0E754E8
:10087000FD4F958F8093D202FF91EF919F918F91C1
:100880002F910F900BBE0F900FBE0F901F901895D9
:100890008081F2CFECE1F2E01382128248EE53E065
:1008A00060E070E0448355836683778384E092E060
:1008B000918380832DEC30E0358724872CEC30E069
:1008C0003787268728EC30E0318B208B29EC30E00D
:1008D000338B228B2AEC30E0358B248B2EEC30E0EE
:1008E000378B268B118E128E138E148EE9EBF2E06D
:1008F0001382128244835583668377839183808336
:1009000085EC90E09587848784EC90E097878687D4
:1009100080EC90E0918B808B81EC90E0938B828BCC
:1009200082EC90E0958B848B86EC90E0978B868BA5
:10093000118E128E138E148E0895789484B5826071
:1009400084BD84B5816084BD85B5826085BD85B573
:10095000816085BD80916E00816080936E001092F1
:10096000810080918100826080938100809181006C
:1009700081608093810080918000816080938000FD
:100980008091B10084608093B1008091B00081605B
:100990008093B0008091910082608093910080915B
:1009A000910081608093910080919000816080939C
:1009B00090008091A10082608093A1008091A100AD
:1009C00081608093A1008091A00081608093A0004D
:1009D00080912101826080932101809121018160B9
:1009E000809321018091200181608093200180917A
:1009F0007A00846080937A0080917A00826080938C
:100A00007A0080917A00816080937A0080917A00E8
:100A1000806880937A001092C100E091C902F09141
:100A2000CA0222E02083E091C502F091C602108242
:100A3000E091C702F091C8028FEC80831092D1023E
:100A4000E091CD02F091CE0296E09083E091CB024E
:100A5000F091CC02808180618083E091CB02F091A3
:100A6000CC02808188608083E091CB02F091CC023F
:100A7000808180688083E091CB02F091CC028081FC
:100A80008F7D8083E0912C02F0912D022083E091F4
:100A90002802F09129021082E0912A02F0912B02A3
:100AA00080E1808310923402E0913002F0913102B3
:100AB0009083E0912E02F0912F02808180618083EB
:100AC000E0912E02F0912F02808188608083E09176
:100AD0002E02F0912F02808180688083E0912E02A7
:100AE000F0912F0280818F7D808388E00E945B01DE
:100AF00089E00E945B0186E10E945B0187E10E9420
:100B00005B0188E10E945B0189E10E945B018CE14D
:100B100092E00E946402892BA1F08CE192E00E9495
:100B20004202C82F80931202682F89EB92E00E9444
:100B3000A602CC3409F44DC03CF4C234A9F1C63449
:100B4000A1F00E941303E3CFC23509F448C0C335B6
:100B5000C1F788E00E945B0160E088E00E947A01B2
:100B600089E00E945B0160E01BC060E086E10E94BA
:100B70007A0161E087E10E947A0188E00E945B01CE
:100B800061E088E00E947A0160E088E10E947A01D9
:100B900061E089E10E947A0189E00E945B0161E0E5
:100BA00089E00E947A01CDCF61E086E10E947A015E
:100BB00060E087E10E947A0188E00E945B0161E0C9
:100BC00088E00E947A0161E088E10E947A0160E099
:100BD000E0CF61E086E10E947A0160E0CBCF60E087
:100BE00086E10E947A0161E0E4CFEE0FFF1F881FCB
:0E0BF0008BBF0790F691E02D1994F894FFCF7B
:100BFE0000000000A60206023302F3026402420263
:020C0E0056028C
:00000001FF
